:02000004080AE8
:1000000000000A0890490A080000060006000501E1
:080010000402FE0800000000DC
:040018002C450A0861
:10001C0009480A4908B5884205D0094A824202D0EB
:10002C00121A04F0A5F90748074A0021121A04F025
:10003C00ADF9064808BD00BF00000020FC480A08C6
:10004C006C0000206C000020E1060020E10600207E
:10005C0070B502F0D1F90025054E064CA41BA4087E
:10006C00A54200D170BD56F8043B98470135F7E71F
:10007C00C8480A08E8480A0800F02AB808B500F091
:10008C006FF8BDE8084002F06FB901F06BBD01F0EC
:10009C0069BD01F06FBD0078B0FA80F0400970477F
:1000AC00012303707047000013B50446044B1B7802
:1000BC008DF800303C2302F0F7FA204602B010BD58
:1000CC006C0000200821014800F0D6BF740000200D
:1000DC0008B501F027FD02F033FD4FF4E13102F0D9
:1000EC000FFD02F02DFD02F012FD18B9012002F0F7
:1000FC00E1F8F6E702F024FD0A4901F078FF0A481E
:10010C0001F002F828B902F01BFD084901F06FFF5D
:10011C00FEE702F015FD064901F069FFBDE8084055
:10012C00FFF7D0BF40450A087400002057450A0865
:10013C0095450A0838B5046805467CB16368013BEF
:10014C0063605BB9236820469B689847A368013BB2
:10015C00A3601BB923682046DB689847284638BD46
:10016C002DE9F0478048ACB000F004FF23AB0093BE
:10017C0008A97D487D4E1AAB11AA01F075F80D9CAB
:10018C00316824F00044204621F0004103F046FF82
:10019C0000B13460764D0E9C296824F00044204652
:1001AC0021F0004103F03AFF00B12C60714C0F9F1D
:1001BC00216827F00047384621F0004103F02EFF5C
:1001CC0000B127606C4F3B68B3F5FA6F40F3C68003
:1001DC000023DFF8E481D6F80090D8F800103B60DB
:1001EC0029F0004021F0004103F018FF08B1C8F8D5
:1001FC000090DFF8B491D5F800A0D9F800102AF0DF
:10020C00004021F0004103F009FF08B1C9F800A03B
:10021C00DFF89C91D4F800A0D9F800102AF0004027
:10022C0021F0004103F0FAFE08B1C9F800A002F079
:10023C0087FC524901F0DBFE02F082FC504901F0D0
:10024C00C3FE02F07DFC0222316801F0B7FF02F020
:10025C0077FC4C4901F0B8FE02F072FC02222968CE
:10026C0001F0ACFF02F06CFC474901F0ADFE02F06E
:10027C0067FC0222216801F0BEFF0622316804A847
:10028C0001F065FE049A414902A8FFF70DFF03A88F
:10029C00FFF750FF04A801F0FFFD0622296804A80F
:1002AC0001F055FE049A3A4902A8FFF7FDFE03A897
:1002BC00FFF740FF04A801F0EFFD0622216804A817
:1002CC0001F045FE049A334902A8FFF7EDFE03A89E
:1002DC00FFF730FF04A801F0DFFD02F031FC2E49DE
:1002EC0001F085FE02F02CFC2C4901F080FE02F09E
:1002FC0027FC2B4901F068FE02F022FC0222D8F800
:10030C00001001F05BFF02F01BFC264901F05CFEC3
:10031C0002F016FC244B0222196801F04FFF02F088
:10032C000FFC224901F050FE02F00AFC204B022285
:10033C00196801F060FF02F003FC174901F057FE49
:10034C0002F0FEFB1B4901F052FE02F0F9FB1249D0
:10035C0001F04DFE002333602B6023603B680133BA
:10036C003B602CB0BDE8F0877400002058010020E1
:10037C005C0100206001002070000020A8450A08E4
:10038C000D460A08CA450A08D4450A08DE450A087B
:10039C00E4450A08EA450A08C9450A08F0450A086E
:1003AC000C460A0815460A086801002020460A086F
:1003BC006C0100202B460A08640100200021024B2E
:1003CC000248197000F026BE6C000020740000205A
:1003DC007047704710B50446102102F099FE204674
:1003EC0010BD0000024B986808B101F0D3B97047FA
:1003FC00740100200EB403B503AB53F8042B002199
:10040C00019301F006FF02B05DF804EB03B07047F6
:10041C0073B5044622790846A36832B1A3B90B49D7
:10042C0002B0BDE8704001F0CFBD094A267B094DF2
:10043C000949647B012E18BF2946CDE900140749F0
:10044C00FFF7D8FF02B070BD054AEFE7A2460A08D5
:10045C00C9450A089E460A089A460A08B8460A0878
:10046C0091460A0838B50B4D2978BFF35B8F11F014
:10047C0001040DD12846FFF70EFE48B1214606486F
:10048C0001F0ABFB2846FFF70BFE044803F06AFFB4
:10049C00014838BD7001002074010020F1030A08E6
:1004AC0030B5002503729DF81830C0E90012437373
:1004BC00BDF80C30456143819DF8143083739DF871
:1004CC001030037330BD0346F0B5408985B04FEA58
:1004DC00102EADF80C0018680E4617469C7A40B1E9
:1004EC005B7B019303AB0093012300F0F3FA05B09F
:1004FC00F0BD58680028FAD093F808C05D7BBCF1B9
:10050C00030F0BD12EF0010E01358DF80CE08DF898
:10051C000D40009503AB00F04CFAE8E7BCF1000F7E
:10052C0008D104F07F048DF80C403A463146009512
:10053C0003ABF0E7BCF1020F02D164F07F04F2E7E9
:10054C00BCF1010F01BF9DF80C3003F07F0343F0A9
:10055C0040038DF80C30E8E7F0B403460C4602B9C2
:10056C00027B042A13D803F10F0529465C61981805
:10057C00984209D09F7BE6B227B92E70240A013528
:10058C000138F5E78673F9E7F0BCFFF79CBF002054
:10059C00F0BC7047F0B50B4604461146857A42898B
:1005AC00006885B0170AADF80C2040B10022CDE9E7
:1005BC00001203A9627B00F0FBFA05B0F0BD606885
:1005CC000028FAD0267A627B032E0DD1FF24CDE9C8
:1005DC00001447F001078DF80C708DF80D500132A6
:1005EC0003A900F018FAE8E73EB965F07F058DF82D
:1005FC000C50FF24CDE90014F2E7022E02D105F0D5
:10060C007F05F4E7012E02BF9DF80C4064F03F0417
:10061C008DF80C40EDE738B500F10F052946027B4B
:10062C000446FFF7B7FF78B129460020237B23440B
:10063C00A3420BD0A27B000222B99A7B1043013B50
:10064C000131F5E70A78F9E74FF0FF3038BD10B506
:10065C0001600271437110BD10B504460068FFF7CC
:10066C00DAFF0123227993406279013BD040184094
:10067C0010BD70B5044600680E46FFF7CCFF012292
:10068C00237961799A40531E03FA01F520EA050596
:10069C003340206803FA01F12943027BBDE8704026
:1006AC00FFF75ABF2DE9F0411D46FF23C3734FF6E8
:1006BC00FF734FF000080382079B044681730360AD
:1006CC0080F83480102016469DF81870FFF7DDFC7A
:1006DC0030B1074B80F80480036086600573477364
:1006EC00C4E90106257320466773BDE8F08100BF9D
:1006FC00E0460A082DE9F84F8B461C269DF92890F8
:10070C008173C273437480F81090044692461D4660
:10071C009DF830809DF8347000F0FCFF06FB0BFB5D
:10072C0050F80B201432226200F0F4FF8344BBF823
:10073C000420B9F1FF3F22630BD000F0EBFF06FB66
:10074C0009F683591433636100F0E4FF0644B3885F
:10075C0063626B1C0BD000F0DDFF1C235D4343591F
:10076C001033E36100F0D6FF0544AB88A3621C256F
:10077C0000F0D0FF05FB0AF543591433A36100F0D8
:10078C00C9FF0544AB880025E3620B9B1020A360D6
:10079C0084F80C80677384F83450FFF776FC38B11A
:1007AC00064B057103600B9B80F80C8083604773CC
:1007BC000023606023602046BDE8F88FE0460A08FD
:1007CC0010B50446406810B103689B6898472046F2
:1007DC0010BD38B5044690F90E00012180B202F02C
:1007EC0021FC94F90E00012180B202F02CFC25684A
:1007FC0035B1284601F000FA012084F8340038BDE8
:10080C0094F90F00012180B202F00CFC637B94F987
:10081C000F00012B94BF2946012180B202F013FC7A
:10082C0094F91000421C09D0012180B202F0FAFBAD
:10083C0094F91000012180B202F005FC94F911002A
:10084C00431CD9D0002180B202F0ECFBD4E70000AD
:10085C002DE9F04F044600680D46134685B038B1BB
:10086C00002200920A4601F05BFA05B0BDE8F08F59
:10087C00227BA068002A0CBF4FF0010B4FF0800BBD
:10088C000A78444F1BEA020FB7FBF0F70CBF4FF08E
:10089C0001094FF00009CB18FFB20393039BAB4245
:1008AC00E3D05E464FF0000895F800A017B138462B
:1008BC0000F058FF637B13F0FD0F41D194F9103019
:1008CC005A1C0FD01AEA060114BF012300234B4512
:1008DC0008D06369606A1A6800292CD04FF00109AE
:1008EC0002431A60A169E36A0A6813430B6017B1EB
:1008FC00384600F037FF94F91130013306D0E36924
:10090C001A68A36A1A4218BF46EA0808A169E36A82
:10091C000A6822EA03030B6094F91130013318BF03
:10092C0085F80080237B002B32D17600F6B2002EA6
:10093C00BCD10135B2E722EA000289461A60D1E740
:10094C00A169E36A0A6813430B6017B1384600F0DB
:10095C0009FF94F91030013308D06369616A1A6891
:10096C001AEA060F14BF0A438A431A60A169E36AA4
:10097C000A6822EA03030B6094F911300133CBD0DF
:10098C00E3691A68A36A1A4218BF46EA0808C3E763
:10099C007608CCE720A1070007B501228DF80710D7
:1009AC000DF10701FFF754FF9DF8070003B05DF848
:1009BC0004FB2DE9F041044600680E4617461D461F
:1009CC0010B1616801F040F994F90E00002180B279
:1009DC0002F039FB069B05EB0308454508D137446B
:1009EC00B7420BD0204616F8011BFFF7D5FFF7E7EF
:1009FC00204615F8011BFFF7CFFFEEE794F90E0028
:100A0C00012180B202F01FFB206808B101F002F94D
:100A1C000120BDE8F0812DE9F041044600680E4646
:100A2C0017461D469DF81C8010B1616801F00CF949
:100A3C0094F90E00002180B202F005FB3744BE424F
:100A4C000AD1069BEE18AE420CD041462046FFF769
:100A5C00A3FF05F8010BF6E7204616F8011BFFF77C
:100A6C009BFFECE794F90E00012180B202F0EBFA47
:100A7C00206808B101F0CEF80120BDE8F081426099
:100A8C000022027220220170C260704710B5037AF6
:100A9C00044653B12178606802F0A7F9606802F04F
:100AAC00ACF9B0FA80F0400910BD012100F003F858
:100ABC000028EFD1F8E738B5044640680D4602F03F
:100ACC0065F90120207225B12046BDE83840FFF7BA
:100ADC00DDBF38BD2DE9F8431F46DDE90896C36834
:100AEC00154632449A420446884602D90020BDE895
:100AFC00F8830178406802F078F97EB960682A467C
:100B0C0003684146DB6898478542EFD139466068F7
:100B1C0002F06FF9B0FA80F04009E8E7B9F1000F84
:100B2C00ECD06068324603684946DB689847B042AF
:100B3C00DCD1E3E72DE9F041154604460E46D2B26E
:100B4C000178406802F03FF985420DD100271FFA69
:100B5C0087F8A84507F1010709D2606803685B694B
:100B6C00984706F80800F2E70020BDE8F081012064
:100B7C00FBE72DE9F84307468846164699460025BB
:100B8C00B54212D2FA68741B944228BF1446331B28
:100B9C00AB4294BF4B4600232246384608EB050176
:100BAC00FFF7C8FF10B12544EAE70120BDE8F88340
:100BBC0073B51D460023CDE900339DF81C30044667
:100BCC00069EFFF787FF40B1012332462946204697
:100BDC0002B0BDE87040FFF7CCBF02B070BD034659
:100BEC0030B4026A8468551004EB6200D20748BF27
:100BFC006259DB6930BC48BFD3581847704770B591
:100C0C00044602690D468168561001EB6200D2075A
:100C1C0048BF8A59E36848BFD3589847A369A2686C
:100C2C00591013F0010F02EB630664691CBF535893
:100C3C001C5900F09FFD294602463046A047012072
:100C4C0070BD10B50446242102F062FA204610BD96
:100C5C0070B50C460546164600212022201D03F0D7
:100C6C0095FB242323606B6C266163600123A360D6
:100C7C00E96B286803F016F80E4903F0C7F80E4923
:100C8C0003F010F86061E96B686803F00BF8094930
:100C9C0003F0BCF8084903F005F8A061E96BA868FB
:100CAC0003F000F8034903F0B1F8034902F0FAFF2E
:100CBC00E06170BD00007A440AE81C4170B50C4636
:100CCC000546164600212022201D03F05FFB24233D
:100CDC0023606B6C266163600423A360296CE86855
:100CEC0002F0E0FF0A4902F0DDFF6061296C28691F
:100CFC0002F0D8FF064902F0D5FFA061296C6869A3
:100D0C0002F0D0FF024902F0CDFFE06170BD00BFE0
:100D1C0035FA8E3C70B50C46054600211646201D52
:100D2C00202203F033FB24232360EB6C26616360E9
:100D3C000D23A360B5F9240002F060FF4FF0785149
:100D4C0002F0B0FF024902F0A5FE606170BD00BF69
:100D5C000000A8410B4610B5282204460021184675
:100D6C0003F014FB0B22094903F05FFB0022012165
:100D7C000346C272C160606C5A62054AC3E9040141
:100D8C009A61044ADA61044A1A6210BDEC460A08F8
:100D9C00CDCC1C43CDCC1CC3AEB51C3A0B4610B508
:100DAC00282204460021184603F0F0FA0B220949C8
:100DBC0003F03BFB00220121C272C160A16C4262B4
:100DCC0001610421044A41618261044AC261044AFE
:100DDC00026210BDF6460A08D7A30B42D7A30BC27A
:100DEC00792220390B4610B52822044600211846DA
:100DFC0003F0CCFA0B22084903F017FB0022012167
:100E0C00C272C160E16C4262016100220D218261FB
:100E1C004161C261026210BD00470A081FB5044659
:100E2C00806A08B901F07F018DF80C108DF80D2047
:100E3C0048B100230222CDE9003303A90123FFF7B7
:100E4C0049FE04B010BD034600900222E06A03A9DB
:100E5C00FFF7AFFDF5E730B50546806A144685B05F
:100E6C0008B941F080018DF80C1048B1002203A99B
:100E7C00CDE900420122FFF79BFE204605B030BDB4
:100E8C00FF22E86ACDE9004203A90122FFF7C3FD66
:100E9C00F3E773B50622A8216B460446FFF7DBFF88
:100EAC009DF903309DF802609DF8045046EA032634
:100EBC009DF905309DF9010045EA03259DF80030A8
:100ECC0043EA002002F09AFE2060304602F096FEC3
:100EDC006060284602F092FEA06002B070BD73B54F
:100EEC00062298216B460446FFF7B5FF9DF90330A7
:100EFC009DF802609DF8045046EA03269DF90530E2
:100F0C009DF9010045EA03259DF8003043EA0020D5
:100F1C0002F074FEE060304602F070FE206128465C
:100F2C0002F06CFE606102B070BD13B5022201AB21
:100F3C0095210446FFF78FFF9DF905209DF804309D
:100F4C0043EA0223A38402B010BD10B504467430EA
:100F5C0000F0EEF9B4F97A0002F050FEA061B4F999
:100F6C007C0002F04BFEE061B4F97E0002F046FE1C
:100F7C00206210BD10B50446FFF78BFF2046FFF72B
:100F8C00AEFF2046FFF7D1FF2046BDE81040FFF72B
:100F9C00DCBF000000234A1C4264CA1C8264144A51
:100FAC000431C0E91723134AC164C0E91923124A5A
:100FBC0080F85430C0E91B23104A8065C0E92A230D
:100FCC000F4A80F8A030C0E92C230E4AC0F8A400C8
:100FDC00C0E92E230C4A80F8C430C0E933230B4AF5
:100FEC00C0F8C800C0E93523094AC0E93723704767
:100FFC009F0E0A085D0C0A08610D0A08EB0E0A0820
:10100C00C90C0A08A90D0A08370F0A08210D0A088D
:10101C00F10D0A08002370B504460A4EC0E90A33E4
:10102C000363066574300D4600F078F9C4F89C60D3
:10103C00C4F8C06002F048F8294620632046FFF748
:10104C00A9FF70BD14470A0810B40C4611461A4685
:10105C00019B14B910BCFFF7FEBE002010BC7047FA
:10106C001FB50DF10F0300930123FFF7EDFF9DF862
:10107C000F0005B05DF804FB38B520220D460021A9
:10108C000446FFF7EDFF00F0E702202120462A433B
:10109C00FFF7C4FE102D0BD003D835B1082D09D0A5
:1010AC0038BD182DFCD1044B00E0044BE363F7E78B
:1010BC00034BFBE7034BF9E723DB793E23DB793D5D
:1010CC0023DBF93D5A643B3F38B510220D46002115
:1010DC000446FFF7C5FF00F0E702102120462A4323
:1010EC00FFF79CFE082D05D0182D05D00DB9034B2C
:1010FC00236438BD024BFBE7024BF9E7295C0F3C3C
:10110C00295C8F3C295C8F3DF0B5036B044685B0A0
:10111C00002B50D0806A10B1102101F0F9FF102083
:10112C00FEF7B3FF054618B16B21226BFFF7A7FC46
:10113C0001212846A562FFF7BEFC10B9002005B0BE
:10114C00F0BD1E21226B04F1740000F06EFA002831
:10115C00F4D0052222212046FFF760FE0A2001F080
:10116C00A9F80F2200212046FFF77AFF6828E5D165
:10117C00C02210212046FFF751FE38221F212046A5
:10118C00FFF74CFE04F17405C02220212046FFF726
:10119C0045FE0021284600F0A5F900212046FFF766
:1011AC006BFF0021284600F0B8F920460021FFF71C
:1011BC008BFF0120C3E7C56A35B12846FFF700FB5A
:1011CC003821284601F0A4FF94F9383004F1740753
:1011DC00013321D1FFF746F906463820FEF755FFBB
:1011EC00054640B100231F4A009394F935100123A2
:1011FC000196FFF757FAE56294F83450FFF732F98D
:10120C0029460246174B384600F02CFA002895D098
:10121C00E06AFFF7DEFA9AE73820FEF736FF05465C
:10122C0080B101230022CDE902320E4B94F9382013
:10123C00019394F9363094F93510009394F93730C2
:10124C00FFF758FA074B3846019394F9363094F966
:10125C003820009394F9341094F93730E56200F09B
:10126C0028FAD3E740420F002DE9F843DDF820902F
:10127C000446884617461E46FFF77CFE00F07AFAB5
:10128C000546B8F1000F04D0024641462046FFF750
:10129C00DFFC27B1394604F1740000F097F826B151
:1012AC002A4631462046FFF709FDB9F1000F04D05C
:1012BC002A4649462046FFF72DFD0120BDE8F8835C
:1012CC00704700000B4610B5282204460021184632
:1012DC0003F05CF80B22094903F0A7F80022012166
:1012EC00C272C160616A426201610221044A4161B9
:1012FC00C261044A8261044A026210BD28470A088E
:10130C000000C8C40000C8448FC2753C10B5044628
:10131C00282101F0FDFE204610BD0000034A0260AA
:10132C000022C0E907220276704700BF48470A082E
:10133C0001230022F0B58DB0CDE902230625282229
:10134C000446CDE90025D0E9071206A8FFF7A8F856
:10135C002A4604A906A8FFF71DF99DF811309DF83F
:10136C0010009DF8126040EA03209DF813309DF8A0
:10137C00145046EA03269DF8153036B245EA03258B
:10138C00237E2DB2032B8CBF4FF07E570E4A00B23A
:10139C0098BF52F82370E0802681658102F02EFC04
:1013AC00394602F033FDE060304602F027FC394646
:1013BC0002F02CFD2061284602F020FC394602F098
:1013CC0025FD60610DB0F0BD30470A0838B50C46FC
:1013DC00054620220021201D02F0D8FF2423236083
:1013EC006B6A63600223A36000F0C4F92061284695
:1013FC00FFF79EFFE868084902F054FC6061286919
:10140C00054902F04FFCA0616869034902F04AFCEF
:10141C00E061012038BD00BF0000C842F0B50125D5
:10142C00002720230E4695B0CDE902750093019557
:10143C00D0E9071204462B4608A8FFF731F805231C
:10144C00022208A904A8FFF702F9314604A8FFF705
:10145C0010F9D4E907122323CDE902750093019505
:10146C002B460EA8FFF71CF802230EA91A4606A855
:10147C00FFF7EDF8314606A8FFF7FBF815B0F0BD05
:10148C0070B5012906460C468CB003D10321FFF739
:10149C00C5FF09E0032903D0052903D10121F6E793
:1014AC000221F4E707291BD00A2000F003FFD6E93C
:1014BC00071201250023CDE9023520230195009365
:1014CC0006A82B46FEF7ECFF2B46042206A904A81F
:1014DC00FFF7BDF8214604A8FFF7CBF80CB070BDA0
:1014EC000021D4E730B50123002522220C468DB013
:1014FC00CDE9025301930092D0E9071206A8FEF73A
:10150C00CFFF2B46022206A904A8FFF7A0F821461C
:10151C0004A8FFF7AEF80DB030BD0123002230B5A2
:10152C008DB0CDE9022321220D4601930092D0E922
:10153C000712044606A8FEF7B3FF0523022206A9EC
:10154C0004A8FFF784F8294604A8FFF792F825763B
:10155C000DB030BD0123002210B58CB0CDE90223B3
:10156C00212201930092D0E90712044606A8FEF747
:10157C0097FF0523022206A904A8FFF768F804A820
:10158C00FFF76AF8C0B220760CB010BD30B500235E
:10159C0001258DB0CDE90235212304460093019538
:1015AC00D0E907122B4606A8FEF77AFF02232A463B
:1015BC0006A904A8FFF74BF8294604A8FFF759F829
:1015CC000A2000F077FE2046FFF7C4FF0DB030BDB7
:1015DC0070B5012600250F238AB0CDE90256009381
:1015EC000196D0E907123346044604A8FEF758FFCB
:1015FC0004A8FFF710F83D2815D12046FFF7C6FFC9
:10160C0003212046FFF70AFF31462046FFF738FF3B
:10161C0029462046FFF781FF20462946FFF762FF47
:10162C0030460AB070BD2846FBE7F8B5C3690446DE
:10163C000E4617464BB91020FEF727FD054618B18C
:10164C003A463146FFF71BFAE56100230121E069B8
:10165C002362FFF730FA20B12046BDE8F840FFF7CF
:10166C00B7BFF8BD2DE9F7431F460023D0F82090F3
:10167C0004460E469046C361B9F1000F0CD13820D8
:10168C00FEF703FD054630B101233A46CDE900983B
:10169C0071B2FFF707F82562206AFFF79AF828B1B4
:1016AC00204603B0BDE8F043FFF792BF03B0BDE89E
:1016BC00F0832DE9F04F98460023D0F8209085B0A8
:1016CC0004460E4617469DF938A0DDF83CB0C361C0
:1016DC00B9F1000F11D13820FEF7D7FC054658B1EF
:1016EC0001233A46CDE901B331464346CDF80C907F
:1016FC00CDF800A0FEF7FEFF2562206AFFF769F81F
:10170C0028B1204605B0BDE8F04FFFF761BF05B02A
:10171C00BDE8F08F08B5024B1B681B68019308BD30
:10172C00B001060808B5024B1B689B68019308BD05
:10173C00B001060808B5024B1B68DB68019308BDB5
:10174C00B001060808B5024B1B681B69019308BD64
:10175C00B001060808B5024B1B685B68019308BD15
:10176C009C01060808B5024B1B68DB68019308BD99
:10177C009C01060808B5024B1B685B69019308BD08
:10178C009C01060808B5024B1B685B6C019308BDF5
:10179C00D001060808B5024B1B689B6C019308BD71
:1017AC00D001060808B5024B1B68DB6C019308BD21
:1017BC00D001060808B5024B1B685B6D019308BD90
:1017CC00D001060808B5024B1B689B69019308BD44
:1017DC00C401060808B5024B1B685B6A019308BD7F
:1017EC00C401060808B5024B1B689B6A019308BD2F
:1017FC00C401060808B5024B1B68DB6A019308BDDF
:10180C00C401060808B5024B1B681B6B019308BD8D
:10181C00C401060808B5024B1B685B6B019308BD3D
:10182C00C401060808B5024B1B689B6B019308BDED
:10183C00C401060808B5024B1B681B6C019308BD5C
:10184C00C401060808B5024B1B68DB6C019308BD8C
:10185C00AC01060808B5024B1B689B6D019308BDD3
:10186C00AC01060808B5024B1B68DB6D019308BD83
:10187C00AC01060808B5024B1B681B6E019308BD32
:10188C00AC01060808B5024B1B685B6E019308BDE2
:10189C00AC01060808B5024B1B689B6E019308BD92
:1018AC00AC01060808B5024B1B68DB6E019308BD42
:1018BC00AC01060808B5024B1B681B6F019308BDF1
:1018CC00AC01060808B5024B1B685B6F019308BDA1
:1018DC00AC01060808B5034B1B68D3F880300193A4
:1018EC0008BD0000AC01060808B5034B1B68D3F813
:1018FC009030019308BD0000AC01060808B5024BFE
:10190C001B681B68019308BDB401060808B5024B9F
:10191C001B68DB69019308BDB401060808B5024BCE
:10192C001B681B6A019308BDB401060808B5024B7D
:10193C001B685B6A019308BDB401060808B5024B2D
:10194C001B689B6A019308BDB401060808B5024BDD
:10195C001B689B6B019308BDB401060808B5024BCC
:10196C001B68DB6B019308BDB401060808B5024B7C
:10197C001B681B68019308BDD801060808B5024B0B
:10198C001B685B68019308BDD801060808B5024BBB
:10199C001B681B69019308BDD801060808B5024BEA
:1019AC001B685B69019308BDD801060808B5024B9A
:1019BC001B689B69019308BDD801060808B5024B4A
:1019CC001B68DB69019308BDD801060808B5024BFA
:1019DC001B681B6A019308BDD801060808B5024BA9
:1019EC001B685B6A019308BDD801060808B5024B59
:1019FC001B689B6C019308BDC001060808B5024B1F
:101A0C001B685B68019308BDA401060808B5024B6E
:101A1C001B685B69019308BDA401060808B5024B5D
:101A2C001B68DB6C019308BDA401060808B5024BCA
:101A3C001B685B6D019308BDA401060808B5034B38
:101A4C001B68D3F89030019308BD0000A401060870
:101A5C0008B5034B1B68D3F89C30019308BD0000FC
:101A6C00A401060808B5024B1B685B68019308BD0E
:101A7C00C801060808B5024B1B689B68019308BD9A
:101A8C00C801060808B5024B1B68DB68019308BD4A
:101A9C00C801060808B5024B1B681B69019308BDF9
:101AAC00C801060808B5024B1B685B69019308BDA9
:101ABC00C801060808B5024B1B689B69019308BD59
:101ACC00C801060808B5024B1B68DB69019308BD09
:101ADC00C801060808B5024B1B681B6A019308BDB8
:101AEC00C801060808B5024B1B681B6B019308BDA7
:101AFC00C801060808B5024B1B685B6B019308BD57
:101B0C00C801060808B5024B1B681B6C019308BD85
:101B1C00C801060808B5024B1B685B6C019308BD35
:101B2C00C801060808B5024B1B68DB68019308BDA9
:101B3C00CC01060808B5024B1B685B69019308BD14
:101B4C00CC01060808B5024B1B681B6A019308BD43
:101B5C00CC01060808B5024B1B68DB6B019308BD72
:101B6C00CC01060808B5024B1B681B68019308BD25
:101B7C00A001060808B5024B1B685B68019308BD01
:101B8C00A001060808B5024B1B689B68019308BDB1
:101B9C00A001060808B5024B1B685B6A019308BDDF
:101BAC00A001060808B5024B1B68DB6A019308BD4F
:101BBC00A001060808B5024B1B681B6B019308BDFE
:101BCC00A001060808B5024B1B685B6C019308BDAD
:101BDC00A00106088068FFF7EDBD70B5002604462D
:101BEC000D4640F8086FFFF7CDFD28462570FFF72E
:101BFC008DFE2046666070BD10B504468068FFF708
:101C0C00D1FD20784FF6FF71FFF778FE2046FFF7E5
:101C1C00E1FF10BD08B5FFF7DDFF08BD30B50024AE
:101C2C00400818601868E5B2884206D90134082CBF
:101C3C0002D040081860F5E70725024B5B5D137076
:101C4C0030BD00BF5C470A082DE9F04306468FB053
:101C5C0080680C46FFF7A6FD1422002109A83578F0
:101C6C0002F094FB0B230022284609A9ADF824307E
:101C7C00FFF75CFE9DF82D3013B19DF82C5055B13B
:101C8C0000270125B946B84623795DB1C3B10020C0
:101C9C000FB0BDE8F083DDF830809DF834909DF8EE
:101CAC003570F1E7002B35D1A368434508D18DF889
:101CBC0020908DF82170BDF82020A3899A42E6D09F
:101CCC000023A1688DF80F300A9804AB0DF10F02B8
:101CDC00FFF7A4FF217985B989B9A36843450ED3D1
:101CEC008DF820908DF82170BDF82020A3899A42A0
:101CFC0005D1049B434502D1C9E70029F9D1002342
:101D0C000193637B9DF80F200093237B3078FFF7C2
:101D1C0025FEBCE72B462A460121CDE90055F5E707
:101D2C0030B587B00A9D044600950078FFF706FE93
:101D3C003DB9207802A9FFF709FE9DF81430DB07A6
:101D4C00F7D407B030BD000002220020044B1A600B
:101D5C00044B054A1860988098719A60FFF74EBE44
:101D6C008C010020800100200000FFFF10B504460C
:101D7C0002F053FB431E20462344834206D90278CB
:101D8C00197800F8011B03F80129F6E710BD70B5AE
:101D9C000C46911E222922D8254668B1B0FBF2F6DA
:101DAC0002FB1600C1B2092894BF30315731C9B2B9
:101DBC00304605F8011BF0E72A46302123449342B4
:101DCC0002D902F8011BFAE75A1BAB4238BF0022BA
:101DDC0000232046AB54FFF7C9FF204670BD0020FE
:101DEC00FCE700002DE9F04707460D4616461C4659
:101DFC00002200233846294601F0C0FD20B12D23D6
:101E0C0005F1004504F8013B00234FF0010A0A22BA
:101E1C00D9B28E4203D902FB0AFA0133F8E75046D5
:101E2C0001F0D0FA3A462B4601F036FB8046894643
:101E3C0002F016F905460F4601F0F8FA02460B4679
:101E4C004046494601F070F90022124B01F0AAFD00
:101E5C0010B1013547F10007524628463946D317D1
:101E6C0002F0E6F80123154621460A22FFF78FFF00
:101E7C006EB1204602F0D1FA2E23211823540A22E7
:101E8C0033462846BDE8F0470131FFF780BFBDE877
:101E9C00F08700BF0000E03F10B504460068FFF774
:101EAC0069FE204610BD10B50446006808B1FFF766
:101EBC0061FE0023C4E90133236010BD38B504462C
:101ECC000D4600680131FFF75DFE10B1C4E9000555
:101EDC00012038BD10B50368044623B143688B421A
:101EEC0001D3012010BD2046FFF7E8FF0028F9D0F0
:101EFC00A368002BF5D122681370F2E770B50E467B
:101F0C00114604461546FFF7E5FF20B92046FFF7BA
:101F1C00CAFF204670BD2A4631462068A56002F0F3
:101F2C0027FA00212268A368D154F2E738B5054698
:101F3C000C4649B1084602F070FA21460246284682
:101F4C00FFF7DCFF284638BDFFF7ADFFFAE70023AB
:101F5C0030B504468BB0C0E9003383600373D5B24F
:101F6C00084601F041FA2A4601ABFFF73BFF204639
:101F7C0001A9FFF7DBFF20460BB030BDF8B50646D4
:101F8C000D4600248F18BD420CD0336830469B6838
:101F9C0015F8011B9847031E01DB1C44F3E7002CCA
:101FAC0008BF1C462046F8BD70B505460C460846D1
:101FBC0049B102F032FA2B68024621462846BDE8A8
:101FCC007040DB68184770BD08B5FFF7EDFF08BD22
:101FDC0003689B68184738B50D210546FFF7F8FFD5
:101FEC000A2104462846FFF7F3FF204438BD38B5D4
:101FFC000546FFF7D9FF04462846FFF7ECFF2044BF
:10200C0038BD0023012A98BF0A2230B58BB00C468C
:10201C008DF8243009A92546B4FBF2F404FB1253C5
:10202C00DBB2092B94BF30333733DBB2AA4201F851
:10203C00013DF0D9FFF7B8FF0BB030BD2DE9F74FDC
:10204C0005461946104692461F469DF8306001F031
:10205C00BDFC40B150492846FFF7A6FF0446204678
:10206C0003B0BDE8F08F27F000444FF0FF3250462C
:10207C0021464A4B01F0AAFC48B94FF0FF325046BA
:10208C002146464B01F084FC08B94549E3E74FF083
:10209C00604250463946434B01F08EFC08B1424930
:1020AC00D9E74FF0604250463946404B01F066FC90
:1020BC000028F4D1002200235046394601F05EFC82
:1020CC00044630B12D212846FFF782FF044607F164
:1020DC0000474FF0000B00204FF000083449DFF8A8
:1020EC00D8905FFA8BF39E4206D942464B4601F0DC
:1020FC00FDFA0BF1010BF4E73B46524601F016F8E2
:10210C008946804601F0A0FC074601F04BF90246D7
:10211C000B464046494601F007F80A22804689469C
:10212C0028463946FFF76DFF044426B1284621495D
:10213C00FFF73AFF04444FF0000ADFF87CB0013E91
:10214C00F6B2FF2E8BD052465B464046494601F014
:10215C00A3F98046894601F04FFC071E19DA2D21A0
:10216C002846FFF735FF034679420A222846019399
:10217C00FFF747FF019B034438461C4401F022F94A
:10218C0002460B464046494600F0CEFF8046894643
:10219C00D5E739460023E8E764470A08FFFFEF7FDD
:1021AC0068470A08FFFFEF416C470A08FFFFEFC1C1
:1021BC000000E03F70470A080000244037B5054690
:1021CC001446084601F010F9E4B202460B462846C4
:1021DC000094FFF733FF03B030BD37B59DF81810EE
:1021EC0005460091FFF72AFF04462846FFF7F3FE49
:1021FC00204403B030BD37B504460846154601F0FF
:10220C00F3F8009502460B462046FFF7E6FF03B0B5
:10221C0030BD2DE9F04186B000AF05460E46381DA5
:10222C00142114463B60FFF7B5FC13280ED8284642
:10223C00391DFFF7B9FE04461EB12846FFF7CBFE49
:10224C00044420461837BD46BDE8F08100F1080370
:10225C0023F00703E846ADEB030D2246411C3B6817
:10226C006846FFF797FC69462846FFF79DFE044633
:10227C00C546E1E7002340681A461946FFF712BC31
:10228C000B68036013B15A6801325A607047000042
:10229C00014B024A1A6070479001002072470A08ED
:1022AC00024B1A68024B1A60704700BF00000020F6
:1022BC00940100200021FFF7A9BB10B583680446E8
:1022CC0013B1032201469847204610BD13B56C4646
:1022DC000B46024603C884E8030093E8030082E837
:1022EC00030094E8030083E8030002B010BD000073
:1022FC000022014B9A60704798010020014B186036
:10230C00704700BF0400002008B5134B43B100F028
:10231C0017FC03681B699847002801DDAFF30080A8
:10232C000E4B43B100F0BCFC03681B6998470028B6
:10233C0001DDAFF300800A4B0BB1AFF30080094B0A
:10234C0043B100F037FC03681B699847002801DD96
:10235C00AFF3008008BD00BF0000000000000000CB
:10236C00000000000000000008B5FFF7CDFFFFF7EC
:10237C0001FA014B186008BD140600200548064AF6
:10238C0008B5121A054901F0F3FF054B054A1A600E
:10239C0008BD00BF0040024004400240F8480A0853
:1023AC00004002401E1C279A002307B51A466FF006
:1023BC0077010093FFF74CFB03B05DF804FB0000C2
:1023CC0007B543880A2B08D0502B0BD1094B1B683F
:1023DC004BB103B05DF804EB1847FFF7E5FF03B012
:1023EC005DF804FB00231A466FF077010093FFF7AA
:1023FC002FFBF4E7AC010020002110B51148FFF7CA
:10240C00E1FB114B1A68114B9A420CBF01220022BE
:10241C000F4B1A7001D0FFF7B1FFFFF79BF9044681
:10242C0001F0BCFF0B4B13B12046AFF30080002131
:10243C000848FFF78FFBBDE8104000210648FFF766
:10244C00FDBA00BF09230A08004002401E1C279A4F
:10245C00A801002000000000CD230A0870470020CE
:10246C00704710B50446102100F052FE204610BDF6
:10247C0008B5FFF7F6FF08BD002230B54FF69C7487
:10248C00026084808D888C800C68858004600A6072
:10249C0030BD10B504460068FFF76CFB204610BD3C
:1024AC0038B5C468F4B12378022B03D104F10C00C5
:1024BC00FFF7EFFF656835B12846FFF7FEFE1021E8
:1024CC00284600F025FEA56835B12846FFF7F5FE35
:1024DC001021284600F01CFE2046BDE8384014218F
:1024EC0000F016BE38BD73B50E46044656F8043BD4
:1024FC000D4601A831460093FFF7C2FE009B019ADE
:10250C0023600023626001A801930093FDF712FE83
:10251C003046FDF70FFE2846082100F0F9FD204655
:10252C0002B070BD826810B50AB900F0F5FDC36841
:10253C00BDE81040184708B5006800F11001FFF71E
:10254C00F1FF08BD826810B50AB900F0E5FDC3685B
:10255C00BDE81040184708B5006800F11001FFF7FE
:10256C00F1FF08BD38B500230446036010200D466A
:10257C00FDF78BFD28B10123C0E90133024BC56087
:10258C0003602060204638BD9C470A0838B50023FC
:10259C0083608B6804460D462BB102229847EB688A
:1025AC00E360AB68A360204638BD0000F0B589B08D
:1025BC0004686846FFF760FF4FF00203D4E84F2F22
:1025CC00002A03D1C4E8413F0029F7D125D104F1F9
:1025DC000C0569462846FFF74FFF0123BFF35B8FBD
:1025EC0063700020BFF35B8F04F1080353E8006FA6
:1025FC0043E80002002AF9D1BFF35B8F6EB1FFF7FD
:10260C000DFA78B129463046FFF78CFF3046FFF7BC
:10261C0054FE1021304600F07BFD6846FFF739FF71
:10262C0009B0F0BD314602A8FFF7B0FFE068B4F97D
:10263C00105008B101F0D6FE06901020ADF81C50D9
:10264C00FDF723FD0546E8B1002787601820FDF74C
:10265C001CFD044688B10146876002A8FFF736FED0
:10266C00049BA268A360059B0492E26806A9E36040
:10267C0004F110000592FFF7FFFE084B2C60EB6095
:10268C00074BAB6006A8FFF704FF02A8FFF715FE87
:10269C00002229460348FFF7C9F9B7E743250A0882
:1026AC00D9270A08F52C0A082DE9F0478AB0054607
:1026BC000C46174698469DF84890FFF73BFA07AE34
:1026CC00824638BB4FF62E73059005A93046ADF8FF
:1026DC001830FFF7D1FE1420FDF7D7FC044648B1A3
:1026EC00022303700123C0E901AA437031460C3068
:1026FC00FFF7C2FE2846214640F8044BFFF732FF95
:10270C003046FFF7C6FE05A8FFF7C3FE28460AB001
:10271C00BDE8F0870C234FF0000A1420CDE908AA7D
:10272C000793FDF7B2FC014628B1C0E901AA80F875
:10273C0000A080F801A004A80391FFF713FF224B1F
:10274C0008200893FDF7A1FC824628B1039B04A93D
:10275C0040F8043BFFF794FD42463946204600966C
:10276C005FFA89F3CDF824A0FFF7ECF9B8B9039B15
:10277C005B7803F0FF0293B94FF69C7305A903A88D
:10278C000592ADF81830FFF711FF05A8FFF781FE91
:10279C0005A80999FFF7A7FE06A8FDF7CBFC039B3C
:1027AC0004A906A80593FFF76BFD059B069A2B6001
:1027BC0000236A6006A806930593FDF7BBFC04A8EA
:1027CC00FDF7B8FCA2E700BF9D280A08022AF8B55D
:1027DC00054607D0032A18D0012A01D10B680360E3
:1027EC000020F8BD18200E68FDF74FFC044650B1D0
:1027FC003146FFF7CBFE3069B6F9147008B101F021
:10280C00F1FD2061A7822C60EAE70468002CE7D078
:10281C0004F11000FFF73DFE2046FFF74EFD182196
:10282C00204600F075FCDBE738B5002383608B682D
:10283C0004460D462BB102229847EB68E360AB6867
:10284C00A360204638BD022A70B5044607D0032A7F
:10285C0012D0012A01D10B680360002070BD142036
:10286C000E68FDF712FC054620B13146FFF7DCFF80
:10287C00337C2B742560F0E70468002CEDD02046E7
:10288C00FFF71BFD1421204600F042FCE5E7000099
:10289C00F0B5044689B00D4601A81146FFF723FE9A
:1028AC00A4B124B21DB1284601F09CFD054601A837
:1028BC0003A90395ADF81040FFF778FE03A8FFF7C6
:1028CC00E8FD02A8FDF736FC09B0F0BD0123019D1F
:1028DC00D5E84F2F002A03D1C5E8413F0029F7D195
:1028EC00EFD12B73BFF35B8F6B70BFF35B8F2B1D23
:1028FC0053E8006F43E80042002AF9D1BFF35B8F25
:10290C00002EDED02046FFF789F8074660B130462E
:10291C0005F10C01FFF716FE3046FFF7CEFC102137
:10292C00304600F0F5FBCCE7314603A8FFF77CFFFF
:10293C002B7B10208DF81C30FDF7A7FB0546D0B182
:10294C0087601420FDF7A1FB044678B1014687602F
:10295C0003A8FFF7BBFC059BA268A360069B05922E
:10296C00E268E3609DF81C3006922374064B2C60E1
:10297C00EB60064BAB6003A8FFF79FFC00222946D7
:10298C000348FFF753F8C7E763250A0853280A08DA
:10299C00F52C0A08704710B50446182100F0B8FB56
:1029AC00204610BDF8B50E46002400F10807051DA1
:1029BC0017F8011D0A223046FFF723FBAF420444EF
:1029CC0001D12046F8BD002CF2D02E213046FFF765
:1029DC00FFFA0444ECE7000010B50446044B112246
:1029EC00002140F8043B01F0D1FC204610BD00BF93
:1029FC00B8470A080346074A10B543F8042B01F1FF
:102A0C00100251F8044B914243F8044BF9D10A7867
:102A1C001A7010BDB8470A08024AC0E90021042206
:102A2C0002757047B8470A0810B59DF8084044EA8B
:102A3C000324042344EA024444EA01644460037519
:102A4C0010BD000037B5044D05609DF81850009579
:102A5C00FFF7EAFF03B030BDB8470A08417470476E
:102A6C007047704708B50021007CFEF79FFF40EAD5
:102A7C00E07008BD08B50121007CFEF797FF40EA25
:102A8C00E07008BD08B5007CFEF788FF20EAE07016
:102A9C0008BD08B5007CFEF779FF20EAE07008BDA0
:102AAC0038B50446007C0D46FEF778FF002801DCA3
:102ABC00607C28B12946207CFEF780FF20EAE0707C
:102ACC0038BD007CFEF782BF10B50446142100F01F
:102ADC001FFB204610BD704710B54FF47A730446A7
:102AEC0008460021C4E90113044B20742360012320
:102AFC0011466374FEF73AFF204610BDCC470A0816
:102B0C000022007CFEF73ABF007CFEF767BFFFF7A0
:102B1C00FBBF000010B504461422002101F036FC66
:102B2C00054B20466360054BE36040F201132381A3
:102B3C008123238210BD00BFE0010020E1020020B0
:102B4C0030B50E4D87B001A8FFF7E4FF2978BFF32D
:102B5C005B8F11F001040ED12846FDF79CFA50B1A1
:102B6C00214601AA0648FFF7B7FF2846FDF798FA59
:102B7C00044801F0F7FB024807B030BDB00100205B
:102B8C00B80100206D2A0A0810B504461422002151
:102B9C0001F0FCFB054B20466360054BE36040F203
:102BAC00011323818123238210BD00BF6203002007
:102BBC006304002010B50E4C86B001A8FFF7E4FFAB
:102BCC002378BFF35B8FDB070ED42046FDF763FA47
:102BDC0050B1012101AA0748FFF77EFF2046FDF7FF
:102BEC005FFA054801F0BEFB024806B010BD00BFFD
:102BFC00B4010020CC010020E32A0A08704741747C
:102C0C007047704708B5007CFEF714FE20EAE070B0
:102C1C0008BD08B5007CFEF7E5FD20EAE07008BDB4
:102C2C0008B5007CFEF7EEFD40EAE07008BD08B583
:102C3C00007CFEF7DFFD40EAE07008BD007CFEF78B
:102C4C00E9BD70B5467C04460D462EB12946207C64
:102C5C00BDE87040FEF7BEBD007CFEF7EBFD002822
:102C6C00F4DC304670BD10B50446142100F050FA67
:102C7C00204610BD4FF0000C10B504460846114616
:102C8C004FF47A72C4E901C2044A20742260012212
:102C9C0062741A46FEF796FD204610BDFC470A08E2
:102CAC0038B50C4D2978BFF35B8F11F001040FD1AF
:102CBC002846FDF7F0F958B12146074B074A08485A
:102CCC00FFF7D8FF2846FDF7EBF9064801F04AFB61
:102CDC00034838BDE40400206C050020E804002003
:102CEC00F00500200F2C0A0810B5836804460BB9B8
:102CFC0000F012FAC3689847A3681BB1032221465F
:102D0C00204698472046BDE81040102100F000BA3C
:102D1C007047F8B5064615460C468F18BC4206D0CF
:102D2C00336830469B6814F8011B9847F6E7284631
:102D3C00F8BD0022007CFEF79DBD0021007CFEF753
:102D4C00A1BD0021007CFEF7A5BD0021007CFEF793
:102D5C00A9BD0021007CFEF7ADBD10B504461421C1
:102D6C0000F0D6F9204610BD10B54FF47A73044626
:102D7C0008460021C4E90113034B1146236020745B
:102D8C00FEF7A8FD204610BD2C480A080023007C45
:102D9C001A461946FEF756BD7FB500221423CDE91D
:102DAC000122ADF804300B78007C8DF808304B68AC
:102DBC000393CB6804930B7A01A90593FEF794FD5A
:102DCC0007B05DF804FB1FB5003B8DF800104FF009
:102DDC00640118BF01230391694601928DF80830F4
:102DEC00FFF7DAFF05B05DF804FB0022007CFEF76C
:102DFC0031BD0022007CFEF735BD0121FFF7F9BF84
:102E0C00002240681146FEF745BEF0B5154689B064
:102E1C0011220E460446002103A801F0B7FA2846F9
:102E2C0001F0FBFA002781B273682846009703AAC9
:102E3C00FEF7DCFD30B139462046FFF7EDFD2046AC
:102E4C0009B0F0BD204603A9FFF7D4FDF7E7002237
:102E5C0040681146FEF73EBE002240681146FEF760
:102E6C0049BE00224068FEF73DBE0022406881F05A
:102E7C000101FEF727BE002340681A461946FEF7EB
:102E8C0019BE002240681146FEF7F4BD0022022153
:102E9C004068FEF7F7BD002340681A46FEF7E2BD16
:102EAC000422024B5A60024A1A6070470406002042
:102EBC0054480A08002340681A46FEF7D3BD002286
:102ECC0002214068FEF7DEBD002240681146FEF785
:102EDC00D1BD002240681146FEF7DCBD00234068DE
:102EEC001A461946FEF7DEBD002340681A461946FD
:102EFC00FEF7E0BD00214068FEF704BE00214068EB
:102F0C00FEF708BE0022406881F00101FEF7DABD31
:102F1C0000224068FEF7E6BD002240681146FEF72D
:102F2C00E9BD002240681146FEF7D4BD70B51546C8
:102F3C008EB0044608A8FFF74FFD1122002103A80C
:102F4C0001F024FA0026284601F067FA0A4B009695
:102F5C0081B25B68284603AAFEF748FD30B13146C2
:102F6C002046FFF759FD20460EB070BD204603A940
:102F7C00FFF740FDF7E700BF04060020024B034AB1
:102F8C001A6000225A6070470C06002090480A080C
:102F9C00024B986808B1FEF7FDBB70477401002026
:102FAC00172870B5044601D9002070BDA0F10D039F
:102FBC00022B0BD9012824D800F086F80021007CC4
:102FCC00FEF780FC80F00100C0B2EEE7124E3178C3
:102FDC00BFF35B8F11F001050DD13046FDF75BF8A7
:102FEC0048B129460D48FEF7F8FD3046FDF758F874
:102FFC000B4801F0B7F9094B1878FEF78FFC002845
:10300C00D2D1123C012C05D8FFF74AFE007CFEF70A
:10301C0009FCD7E70120C8E77001002074010020EB
:10302C009D2F0A08172838B504460D460AD8FF29E3
:10303C0008D0FFF7B5FF28B129462046BDE8384037
:10304C00FEF770BB38BD38B504460D46FEF772FB73
:10305C00FF2810D0062804D84D2323FA00F0C3070C
:10306C0009D42046FFF79CFF28B129462046BDE82D
:10307C003840FEF767BB38BD002307B51A46194622
:10308C0000930348FFF7DEFC03B05DF804FB00BFC0
:10309C001806002070470000002370B520254380DF
:1030AC001423084E0446038031468560056128468A
:1030BC0000F030F831466060284600F02BF8E060F4
:1030CC00204670BDC4480A0830B50E4D87B029782B
:1030DC00BFF35B8F11F0010411D12846FCF7DBFF25
:1030EC0068B101A8FFF7D8FF214601AA0648FFF7EF
:1030FC003BFE2846FCF7D4FF044801F033F90248A4
:10310C0007B030BD3006002034060020A1300A087C
:10311C00FCF7BFBFFCF7BBBF08B5FEF743FD0000D3
:10312C0081F0004102E000BF83F0004330B54FEA6C
:10313C0041044FEA430594EA050F08BF90EA020FD9
:10314C001FBF54EA000C55EA020C7FEA645C7FEA6C
:10315C00655C00F0E2804FEA5454D4EB5555B8BF8F
:10316C006D420CDD2C4480EA020281EA030382EA00
:10317C00000083EA010180EA020281EA0303362D92
:10318C0088BF30BD11F0004F4FEA01314FF4801C65
:10319C004CEA113102D0404261EB410113F0004F77
:1031AC004FEA03334CEA133302D0524263EB43032E
:1031BC0094EA050F00F0A780A4F10104D5F1200ECC
:1031CC000DDB02FA0EFC22FA05F2801841F1000127
:1031DC0003FA0EF2801843FA05F359410EE0A5F1FB
:1031EC0020050EF1200E012A03FA0EFC28BF4CF02C
:1031FC00020C43FA05F3C01851EBE37101F00045E2
:10320C0007D54FF0000EDCF1000C7EEB00006EEBEE
:10321C000101B1F5801F1BD3B1F5001F0CD3490878
:10322C005FEA30004FEA3C0C04F101044FEA4452CF
:10323C0012F5800F80F09A80BCF1004F08BF5FEA56
:10324C00500C50F1000041EB045141EA050130BD36
:10325C005FEA4C0C404141EB0101013C28BFB1F548
:10326C00801FE9D291F0000F04BF01460020B1FA93
:10327C0081F308BF2033A3F10B03B3F120020CDA66
:10328C000C3208DD02F1140CC2F10C0201FA0CF044
:10329C0021FA02F10CE002F11402D8BFC2F1200CA9
:1032AC0001FA02F120FA0CFCDCBF41EA0C0190405F
:1032BC00E41AA2BF01EB0451294330BD6FEA0404A8
:1032CC001F3C1CDA0C340EDC04F11404C4F1200293
:1032DC0020FA04F001FA02F340EA030021FA04F3A5
:1032EC0045EA030130BDC4F10C04C4F1200220FAFC
:1032FC0002F001FA04F340EA0300294630BD21FA3A
:10330C0004F0294630BD94F0000F83F4801306BFFF
:10331C0081F480110134013D4EE77FEA645C18BFF3
:10332C007FEA655C29D094EA050F08BF90EA020F8A
:10333C0005D054EA000C04BF1946104630BD91EA82
:10334C00030F1EBF0021002030BD5FEA545C05D185
:10335C004000494128BF41F0004130BD14F58004C4
:10336C003CBF01F5801130BD01F0004545F0FE4138
:10337C0041F470014FF0000030BD7FEA645C1ABF6D
:10338C00194610467FEA655C1CBF0B46024650EAA4
:10339C00013406BF52EA033591EA030F41F40021D0
:1033AC0030BD00BF90F0000F04BF0021704730B556
:1033BC004FF4806404F132044FF000054FF000012B
:1033CC0050E700BF90F0000F04BF0021704730B5EC
:1033DC004FF4806404F1320410F0004548BF4042C1
:1033EC004FF000013EE700BF42004FEAE2014FEA16
:1033FC0031014FEA02701FBF12F07F4393F07F4FF1
:10340C0081F06051704732F07F4208BF704793F0F3
:10341C007F4F04BF41F40021704730B54FF4607406
:10342C0001F0004521F000411CE700BF50EA010209
:10343C0008BF704730B54FF000050AE050EA0102B2
:10344C0008BF704730B511F0004502D5404261EB22
:10345C0041014FF4806404F132045FEA915C3FF463
:10346C00D8AE4FF003025FEADC0C18BF03325FEA00
:10347C00DC0C18BF033202EBDC02C2F1200300FAB1
:10348C0003FC20FA02F001FA03FE40EA0E0021FAD6
:10349C0002F11444BDE600BF70B54FF0FF0C4CF4C4
:1034AC00E06C1CEA11541DBF1CEA135594EA0C0F76
:1034BC0095EA0C0F00F0DEF82C4481EA030621EAB1
:1034CC004C5123EA4C5350EA013518BF52EA0335EC
:1034DC0041F4801143F4801338D0A0FB02CE4FF09E
:1034EC000005E1FB02E506F00042E0FB03E54FF0CE
:1034FC000006E1FB03569CF0000F18BF4EF0010EC6
:10350C00A4F1FF04B6F5007F64F5407404D25FEAC1
:10351C004E0E6D4146EB060642EAC62141EA555174
:10352C004FEAC52040EA5E504FEACE2EB4F1FD0CB6
:10353C0088BFBCF5E06F1ED8BEF1004F08BF5FEA34
:10354C00500E50F1000041EB045170BD06F00046E6
:10355C0046EA010140EA020081EA0301B4EB5C0493
:10356C00C2BFD4EB0C0541EA045170BD41F480118B
:10357C004FF0000E013C00F3AB8014F1360FDEBFB0
:10358C00002001F0004170BDC4F10004203C35DA8C
:10359C000C341BDC04F11404C4F1200500FA05F30F
:1035AC0020FA04F001FA05F240EA020001F00042B0
:1035BC0021F0004110EBD37021FA04F642EB060126
:1035CC005EEA430E08BF20EAD37070BDC4F10C0450
:1035DC00C4F1200500FA04F320FA05F001FA04F214
:1035EC0040EA020001F0004110EBD37041F1000100
:1035FC005EEA430E08BF20EAD37070BDC4F120050B
:10360C0000FA05F24EEA020E20FA04F301FA05F272
:10361C0043EA020321FA04F001F0004121FA04F21A
:10362C0020EA020000EBD3705EEA430E08BF20EAEA
:10363C00D37070BD94F0000F0FD101F00046400024
:10364C0041EB010111F4801F08BF013CF7D041EAA6
:10365C00060195F0000F18BF704703F000465200AA
:10366C0043EB030313F4801F08BF013DF7D043EA7B
:10367C000603704794EA0C0F0CEA135518BF95EA31
:10368C000C0F0CD050EA410618BF52EA4306D1D1B8
:10369C0081EA030101F000414FF0000070BD50EAD7
:1036AC00410606BF1046194652EA430619D094EA61
:1036BC000C0F02D150EA013613D195EA0C0F05D14B
:1036CC0052EA03361CBF104619460AD181EA03019F
:1036DC0001F0004141F0FE4141F470014FF0000057
:1036EC0070BD41F0FE4141F4780170BD70B54FF0F2
:1036FC00FF0C4CF4E06C1CEA11541DBF1CEA135572
:10370C0094EA0C0F95EA0C0F00F0A7F8A4EB050453
:10371C0081EA030E52EA03354FEA013100F088804A
:10372C004FEA03334FF0805545EA131343EA126313
:10373C004FEA022245EA111545EA10654FEA0026C8
:10374C000EF000419D4208BF964244F1FD0404F581
:10375C00407402D25B084FEA3202B61A65EB0305DD
:10376C005B084FEA32024FF480104FF4002CB6EB9A
:10377C00020E75EB030E22BFB61A754640EA0C001A
:10378C005B084FEA3202B6EB020E75EB030E22BF5A
:10379C00B61A754640EA5C005B084FEA3202B6EB9B
:1037AC00020E75EB030E22BFB61A754640EA9C005A
:1037BC005B084FEA3202B6EB020E75EB030E22BF2A
:1037CC00B61A754640EADC0055EA060E18D04FEAE8
:1037DC00051545EA16754FEA06164FEAC30343EA88
:1037EC0052734FEAC2025FEA1C1CC0D111F4801F55
:1037FC000BD141EA00014FF000004FF0004CB6E74E
:10380C0011F4801F04BF01430020B4F1FD0C88BFEC
:10381C00BCF5E06F3FF6AFAEB5EB030C04BFB6EBF7
:10382C00020C5FEA500C50F1000041EB045170BDEA
:10383C000EF0004E4EEA113114EB5C04C2BFD4EB17
:10384C000C0541EA045170BD41F480114FF0000E9B
:10385C00013C90E645EA060E8DE60CEA135594EA17
:10386C000C0F08BF95EA0C0F3FF43BAF94EA0C0F1A
:10387C000AD150EA01347FF434AF95EA0C0F7FF48F
:10388C0025AF104619462CE795EA0C0F06D152EAE3
:10389C0003353FF4FDAE1046194622E750EA4106C7
:1038AC0018BF52EA43067FF4C5AE50EA41047FF4D8
:1038BC000DAF52EA43057FF4EBAE12E74FF0FF3C3D
:1038CC0006E000BF4FF0010C02E000BF4FF0010C0E
:1038DC004DF804CD4FEA410C7FEA6C5C4FEA430C87
:1038EC0018BF7FEA6C5C1BD001B050EA410C0CBFD6
:1038FC0052EA430C91EA030F02BF90EA020F002038
:10390C00704710F1000F91EA030F58BF994208BF9E
:10391C0090422CBFD8176FEAE37040F0010070475B
:10392C004FEA410C7FEA6C5C02D150EA013C07D1B2
:10393C004FEA430C7FEA6C5CD6D152EA033CD3D0FD
:10394C005DF8040B704700BF8446104662468C46F7
:10395C001946634600E000BF01B5FFF7B7FF00282A
:10396C0048BF10F1000F01BD4DF808EDFFF7F4FF53
:10397C000CBF012000205DF808FB00BF4DF808EDDE
:10398C00FFF7EAFF34BF012000205DF808FB00BF01
:10399C004DF808EDFFF7E0FF94BF012000205DF823
:1039AC0008FB00BF4DF808EDFFF7CEFF94BF0120D8
:1039BC0000205DF808FB00BF4DF808EDFFF7C4FFD1
:1039CC0034BF012000205DF808FB00BF4FEA410C1A
:1039DC007FEA6C5C02D150EA013C0AD14FEA430CFD
:1039EC007FEA6C5C02D152EA033C02D14FF000003A
:1039FC0070474FF0010070474FEA410212F5001278
:103A0C0015D211D56FF47873B3EB625212D94FEA19
:103A1C00C12343F0004343EA505311F0004F23FA03
:103A2C0002F018BF404270474FF00000704750EA58
:103A3C00013005D111F0004008BF6FF00040704715
:103A4C004FF00000704700BF4A0011D212F500126F
:103A5C0011D20DD56FF47873B3EB62520ED44FEADA
:103A6C00C12343F0004343EA505323FA02F070475A
:103A7C004FF00000704750EA013002D14FF0FF3098
:103A8C0070474FF00000704780F0004002E000BF2C
:103A9C0081F0004142001FBF5FEA410392EA030F2D
:103AAC007FEA226C7FEA236C6AD04FEA1262D2EB77
:103ABC001363C1BFD218414048404140B8BF5B427C
:103ACC00192B88BF704710F0004F40F4000020F015
:103ADC007F4018BF404211F0004F41F4000121F02B
:103AEC007F4118BF494292EA030F3FD0A2F1010275
:103AFC0041FA03FC10EB0C00C3F1200301FA03F1B3
:103B0C0000F0004302D5494260EB4000B0F5000FD5
:103B1C0013D3B0F1807F06D340084FEA310102F194
:103B2C000102FE2A51D2B1F1004F40EBC25008BF46
:103B3C0020F0010040EA03007047490040EB000010
:103B4C00013A28BFB0F5000FEDD2B0FA80FCACF111
:103B5C00080CB2EB0C0200FA0CF0AABF00EBC2503E
:103B6C0052421843BCBFD0401843704792F0000F2C
:103B7C0081F4000106BF80F400000132013BB5E77F
:103B8C004FEA41037FEA226C18BF7FEA236C21D0F5
:103B9C0092EA030F04D092F0000F08BF084670475A
:103BAC0090EA010F1CBF0020704712F07F4F04D128
:103BBC00400028BF40F00040704712F100723CBF3B
:103BCC0000F50000704700F0004343F0FE4040F465
:103BDC00000070477FEA226216BF08467FEA236323
:103BEC000146420206BF5FEA412390EA010F40F40E
:103BFC00800070474FF0000304E000BF10F000435A
:103C0C0048BF40425FEA000C08BF704743F0964340
:103C1C0001464FF000001CE050EA010208BF70475B
:103C2C004FF000030AE000BF50EA010208BF7047E2
:103C3C0011F0004302D5404261EB41015FEA010CF7
:103C4C0002BF84460146002043F0B64308BFA3F1EF
:103C5C008053A3F50003BCFA8CF2083AA3EBC253D1
:103C6C0010DB01FA02FC634400FA02FCC2F12002F0
:103C7C00BCF1004F20FA02F243EB020008BF20F027
:103C8C000100704702F1200201FA02FCC2F120028D
:103C9C0050EA4C0021FA02F243EB020008BF20EA82
:103CAC00DC7070474FF0FF0C1CEAD0521EBF1CEAB0
:103CBC00D15392EA0C0F93EA0C0F6FD01A4480EA9E
:103CCC00010C400218BF5FEA41211ED04FF0006387
:103CDC0043EA501043EA5111A0FB01310CF00040B3
:103CEC00B1F5000F3EBF490041EAD3715B0040EAD9
:103CFC00010062F17F02FD2A1DD8B3F1004F40EBA9
:103D0C00C25008BF20F00100704790F0000F0CF07B
:103D1C00004C08BF49024CEA502040EA51207F3A3F
:103D2C00C2BFD2F1FF0340EAC250704740F400001A
:103D3C004FF00003013A5DDC12F1190FDCBF00F00B
:103D4C0000407047C2F10002410021FA02F1C2F1B9
:103D5C00200200FA02FC5FEA310040F1000053EA55
:103D6C004C0308BF20EADC70704792F0000F00F0A3
:103D7C00004C02BF400010F4000F013AF9D040EAA9
:103D8C000C0093F0000F01F0004C02BF490011F43D
:103D9C00000F013BF9D041EA0C018FE70CEAD1533B
:103DAC0092EA0C0F18BF93EA0C0F0AD030F0004CBB
:103DBC0018BF31F0004CD8D180EA010000F000406F
:103DCC00704790F0000F17BF90F0004F084691F02D
:103DDC00000F91F0004F14D092EA0C0F01D1420267
:103DEC000FD193EA0C0F03D14B0218BF084608D130
:103DFC0080EA010000F0004040F0FE4040F400007A
:103E0C00704740F0FE4040F4400070474FF0FF0C0C
:103E1C001CEAD0521EBF1CEAD15392EA0C0F93EA53
:103E2C000C0F69D0A2EB030280EA010C49024FEAA5
:103E3C00402037D04FF0805343EA111143EA10135E
:103E4C000CF000408B4238BF5B0042F17D024FF416
:103E5C00000C8B4224BF5B1A40EA0C00B3EB510FF1
:103E6C0024BFA3EB510340EA5C00B3EB910F24BFDA
:103E7C00A3EB910340EA9C00B3EBD10F24BFA3EB5F
:103E8C00D10340EADC001B0118BF5FEA1C1CE0D127
:103E9C00FD2A3FF650AF8B4240EBC25008BF20F0DA
:103EAC00010070470CF0004C4CEA50207F32C2BF2E
:103EBC00D2F1FF0340EAC250704740F400004FF0CB
:103ECC000003013A37E792F0000F00F0004C02BFFC
:103EDC00400010F4000F013AF9D040EA0C0093F0C6
:103EEC00000F01F0004C02BF490011F4000F013B20
:103EFC00F9D041EA0C0195E70CEAD15392EA0C0F88
:103F0C0008D142027FF47DAF93EA0C0F7FF470AFBF
:103F1C00084676E793EA0C0F04D14B023FF44CAF02
:103F2C0008466EE730F0004C18BF31F0004CCAD197
:103F3C0030F000427FF45CAF31F000437FF43CAFD3
:103F4C005FE700BF4FF0FF3C06E000BF4FF0010CF5
:103F5C0002E000BF4FF0010C4DF804CD4FEA4002D7
:103F6C004FEA41037FEA226C18BF7FEA236C11D021
:103F7C0001B052EA530C18BF90EA010F58BFB2EBD4
:103F8C00030088BFC81738BF6FEAE17018BF40F054
:103F9C00010070477FEA226C02D15FEA402C05D108
:103FAC007FEA236CE4D15FEA412CE1D05DF8040B8D
:103FBC00704700BF844608466146FFE70FB5FFF720
:103FCC00C9FF002848BF10F1000F0FBD4DF808EDD8
:103FDC00FFF7F4FF0CBF012000205DF808FB00BFC9
:103FEC004DF808EDFFF7EAFF34BF012000205DF823
:103FFC0008FB00BF4DF808EDFFF7E0FF94BF012070
:10400C0000205DF808FB00BF4DF808EDFFF7D2FF6C
:10401C0094BF012000205DF808FB00BF4DF808EDAF
:10402C00FFF7C8FF34BF012000205DF808FB00BF7C
:10403C0053B94AB9002908BF00281CBF4FF0FF3103
:10404C004FF0FF3000F08CB9ADF1080C6DE904CEE7
:10405C0000F024F8DDF804E0DDE9022304B0704739
:10406C00D0B500220B4B06460F46FFF715FAFFF7AB
:10407C00EBFC0446FFF796F90022074BFFF70CFA0E
:10408C0002460B4630463946FFF74EF8FFF7DCFC8C
:10409C002146D0BD0000F03D0000F0412DE9F04775
:1040AC00089E0D4604468E46002B40F083808A42C3
:1040BC00174647D9B2FA82F34BB1C3F1200105FA86
:1040CC0003FE20FA01F19F4041EA0E0E9C404FEA9C
:1040DC001748BEFBF8FC1FFA87F908FB1CE20CFB27
:1040EC0009F0210C41EA024290420AD9BA180CF1AB
:1040FC00FF3180F01881904240F21581ACF1020C36
:10410C003A44121AB2FBF8F008FB102200FB09F13A
:10411C00A4B244EA0244A14209D93C1900F1FF328D
:10412C0080F00381A14240F2008102383C44641AC1
:10413C00002140EA0C401EB10022DC40C6E90042DE
:10414C00BDE8F08702B9FFDEB2FA82F3002B4FD143
:10415C008D1A01214FEA124E1FFA82F8B5FBFEFCB4
:10416C000EFB1C5508FB0CF0220C42EA0545A8423C
:10417C0007D97D190CF1FF3202D2A84200F2E98076
:10418C0094462D1AB5FBFEF00EFB105508FB00F8FB
:10419C00A4B244EA0544A04507D93C1900F1FF320A
:1041AC0002D2A04500F2D9801046A4EB080440EAE4
:1041BC000C40C0E78B4208D9002E00F0B1800021E2
:1041CC00C6E900050846BDE8F087B3FA83F100297B
:1041DC004BD1AB4202D3824200F2B980841A65EB18
:1041EC00030301209E46002EAAD0C6E9004EA7E785
:1041FC009F40C3F12002D1404FEA174EB1FBFEF0B5
:10420C001FFA87F80EFB101124FA02F29D4000FBF6
:10421C0008FC2A43150C45EA0145AC4504FA03F4A5
:10422C0009D97D1900F1FF3180F08F80AC4540F247
:10423C008C8002383D44A5EB0C05B5FBFEF10EFB62
:10424C00115C01FB08F995B245EA0C45A94507D963
:10425C007D1901F1FF3274D2A94572D902393D445E
:10426C00A5EB090541EA004178E7C1F120078B4035
:10427C0022FA07FC4CEA030C25FA07F44FEA1C4E11
:10428C00B4FBFEF91FFA8CF80EFB194420FA07F365
:10429C0009FB08FA8D401D432B0C43EA0444A2454C
:1042AC0002FA01F200FA01F309D91CEB040409F13A
:1042BC00FF3048D2A24546D9A9F102096444A4EBC7
:1042CC000A04B4FBFEF00EFB104400FB08FAADB27E
:1042DC0045EA0444A24508D91CEB040400F1FF355F
:1042EC002DD2A2452BD90238644440EA0940A0FBE8
:1042FC000289A4EB0A044C45C6464D4619D316D088
:10430C005EB1B3EB0E0264EB050404FA07F722FA74
:10431C0001F31F43CC40C6E900740021BDE8F087CF
:10432C00314630460CE78C46EBE61046FFE643453B
:10433C00E6D2B8EB020E69EB0C050138E0E7284633
:10434C00D3E711468CE78146B9E7084673E7084680
:10435C0049E7ACF1020C3D4413E702383C4424E736
:10436C00704700BF002301461A46184600F070B88B
:10437C000A44914200F1FF3300D1704710B511F897
:10438C00014B914203F8014FF9D110BD0346024491
:10439C00934200D1704703F8011BF9E738B50D4B78
:1043AC0004461D68AB6B7BB91820FDF7DBFB0A4A92
:1043BC000A4BA863C0E90023094B012283600B233D
:1043CC0083810023C0E904230022AB6B1C615A617A
:1043DC0038BD00BF040000200E33CDAB34126DE6A7
:1043EC00ECDE0500024B0146186800F003B800BF74
:1043FC000400002070B5044608460D4600F00DF888
:10440C00461C31462046FDF7D5FB044618B1324612
:10441C002946FFF7ADFF204670BD034613F8012B6C
:10442C00002AFBD1181A01387047034610B5013920
:10443C0032B111F8014F013A03F8014B002CF7D1BE
:10444C0000211A44934200D110BD03F8011BF9E777
:10445C002DE9F843DFF8BC800646D8F800001F466B
:10446C000D46914600F058F8264B1C6834B9264C82
:10447C001C60264B13B11B68C4F8883063681F2B73
:10448C0007DDD8F8000000F049F84FF0FF30BDE828
:10449C00F8835EB3D4F8880088B91D4B23B9D8F8DB
:1044AC00000000F03AF8F0E74FF48470FDF75AFB87
:1044BC000028F4D00023C0E94033C4F8880001225E
:1044CC006368022E40F8239002FA03F200EB83019A
:1044DC00D0F8003143EA0203C0F80031C1F8807013
:1044EC0002BFD0F804311A43C0F804216368D8F82D
:1044FC0000005A1C0233626044F8235000F00EF89E
:10450C000020C4E7D406002048060020000000006C
:10451C00711B0A0868000020704770477047000044
:10452C001D000A085D000A0885000A0889000A08AF
:10453C00000000004C534D394453312064617461C8
:10454C0020726561642064656D6F004F6F7073201D
:10455C002E2E2E20756E61626C6520746F20696E34
:10456C00697469616C697A6520746865204C534D77
:10457C00394453312E20436865636B20796F757213
:10458C0020776972696E672100466F756E64204CE6
:10459C00534D394453312039444F46004D617820F6
:1045AC0076616C756573206F766572206C617374BF
:1045BC002032303030207469636B733A2000202035
:1045CC006D61785F793A200020206D61785F7A3ACE
:1045DC0020006D61785F78006D61785F79006D61A6
:1045EC00785F7A004D61782076616C756573206F09
:1045FC0076657220616C6C207469636B733A200071
:10460C00706D61785F783A20002020706D61785F62
:10461C00793A20002020706D61785F7A3A20002D65
:10462C002D2D2D2D2D2D2D2D2D2D2D2D2D2D2D2DAE
:10463C002D2D2D2D2D2D2D2D2D2D2D2D2D2D2D2D9E
:10464C002D2D2D2D2D2D2D2D2D2D2D2D2D2D2D2D8E
:10465C002D2D2D2D2D2D2D2D2D2D2D2D2D2D2D2D7E
:10466C002D2D2D2D2D2D2D2D2D2D2D2D2D2D2D2D6E
:10467C002D2D2D2D2D2D2D2D2D2D2D2D2D2D2D2D5E
:10468C002D2D2D2D0064656661756C7420004D53C5
:10469C0042004C5342003C53504953657474696E4C
:1046AC0067732064656661756C743E003C535049B9
:1046BC0053657474696E6773202573257520257393
:1046CC00204D4F444525753E0000000000000000C1
:1046DC00000000001D040A08DD030A08E1030A08B3
:1046EC004C534D394453315F41004C534D39445375
:1046FC00315F47004C534D394453315F5400000037
:10470C000000000000000000090C0A084F0C0A0809
:10471C00DF030A080B0C0A08EB0B0A084C4953334D
:10472C004D444C0000D0D54500D0554500900E4569
:10473C0000E0D5440000000000000000CD120A0883
:10474C0019130A08DF030A08D9130A08D1120A0838
:10475C0000081018202830386E616E00696E6600F3
:10476C006F7666002E006170700025592D256D2D19
:10477C0025645425483A254D3A2553257A00617312
:10478C006374696D6500000000000000000000000B
:10479C0069240A086F240A08AD240A087D240A0833
:1047AC006B240A080000000000000000B1290A0870
:1047BC00A1290A08A3290A08000000000000000033
:1047CC006F2A0A08D52A0A08AD2A0A08891F0A087E
:1047DC009F2A0A08712A0A08812A0A08CF2A0A087D
:1047EC00912A0A08692A0A0800000000000000004B
:1047FC00092C0A08732C0A084F2C0A08891F0A086E
:10480C001F2C0A083B2C0A082D2C0A08492C0A08D4
:10481C000B2C0A08112C0A080000000000000000F4
:10482C001D2D0A08672D0A083F2D0A081F2D0A089E
:10483C00472D0A084F2D0A08572D0A085F2D0A0824
:10484C000000000000000000A32E0A08992E0A08A0
:10485C008F2E0A080D2E0A0881220A08832E0A08B8
:10486C00012F0A08092F0A08772E0A086F2E0A084A
:10487C00652E0A085B2E0A08172E0A080000000095
:10488C0000000000C12E0A08CB2E0A08D52E0A08FB
:10489C00DF2E0A08E92E0A08F52E0A08012F0A084D
:1048AC00092F0A08112F0A081D2F0A08252F0A089C
:1048BC002F2F0A08392F0A0800000000C9030A0824
:1048CC00551D0A089D220A08AD220A08FD220A0875
:1048DC00AD2E0A08892F0A0885300A08000000004E
:0448EC0000000000C8
:0848F000B8F7FF7F0100000092
:0448F80000000000BC
:1048FC008A470A08080000200000000000000000A1
:10490C00000000000000000000000000000000009B
:10491C00000000000000000000000000000000008B
:10492C00000000000000000000000000000000007B
:10493C00000000000000000000000000000000006B
:10494C00000000000000000000000000000000005B
:0C495C000000000000000000D906002050
:10496800FFFFFFFF00000102030405060708090A0C
:104978000B0C0D0E0F101112131415161718191A07
:084988001B1C1D1E1F2028004E
:04499000785634120F
:04000005080A001CC9
:00000001FF
