:02000004080AE8
:1000000000000A082C120A0800000600060005017C
:080010000402810C0000000055
:04001800840F0A083F
:10001C0009480A4908B5884205D0094A824202D0EB
:10002C00121A00F0F5FE0748074A0021121A00F0D8
:10003C00FDFE064808BD00BF0000002094110A0810
:10004C007000002070000020D1040020D10400209A
:10005C0070B500F025FB0025054E064CA41BA4082A
:10006C00AC4200D170BD56F8043B98470135F7E718
:10007C0070110A088C110A0800F02CB808B500F0B1
:10008C0031F8BDE8084000F0C3BA00F0DDB900F06B
:10009C00E3B90078B0FA80F040097047012303708F
:1000AC0070470EB44FF0200C002300B58CB00DAA95
:1000BC0052F8041BCDE904C3CDE900120392016888
:1000CC0004AA1E2000F02CF90CB05DF804EB03B070
:1000DC0070470000024B0121188800F0DDBD00BF05
:1000EC000000002038B50E4C0E4D2088012100F088
:1000FC00E4FD29460C48FFF7D4FF00F0CFFB29465E
:10010C0000F00AFA4FF4FA7000F042FA208800214D
:10011C0000F0D3FDBDE83840642000F039BA00BFD0
:10012C0000000020980F0A088000002008B5024B40
:10013C001B689B68019308BDB001060808B5024B0B
:10014C001B68DB68019308BDB001060808B5024BBB
:10015C001B681B69019308BDB001060808B5024B6A
:10016C001B685B68019308BD9C01060808B5024B2F
:10017C001B685B69019308BD9C01060808B5024B1E
:10018C001B685B6C019308BDD001060808B5024BD7
:10019C001B689B6C019308BDD001060808B5024B87
:1001AC001B685B6A019308BDC401060808B5024BC5
:1001BC001B689B6A019308BDC401060808B5024B75
:1001CC001B68DB6A019308BDC401060808B5024B25
:1001DC001B681B6B019308BDC401060808B5024BD4
:1001EC001B685B6B019308BDC401060808B5024B84
:1001FC001B689B6B019308BDC401060808B5024B34
:10020C001B681B6C019308BDC401060808B5024BA2
:10021C001B681B6E019308BDC401060808B5024B90
:10022C001B681B6E019308BDAC01060808B5024B98
:10023C001B685B6E019308BDAC01060808B5024B48
:10024C001B689B6E019308BDAC01060808B5024BF8
:10025C001B68DB6E019308BDAC01060808B5024BA8
:10026C001B681B6F019308BDAC01060808B5024B57
:10027C001B685B6F019308BDAC01060808B5034B06
:10028C001B68D3F88030019308BD0000AC01060850
:10029C0008B5024B1B68DB69019308BDB401060865
:1002AC0008B5024B1B681B6A019308BDB401060814
:1002BC0008B5024B1B681B68019308BDD8010608E2
:1002CC0008B5024B1B681B69019308BDD8010608D1
:1002DC0008B5024B1B685B69019308BDD801060881
:1002EC0008B5024B1B689B69019308BDD801060831
:1002FC0008B5024B1B68DB69019308BDD8010608E1
:10030C0008B5024B1B681B6A019308BDD80106088F
:10031C0008B5024B1B689B6C019308BDC001060815
:10032C0008B5024B1B685B6D019308BDA801020860
:10033C0008B5024B1B685B68019308BDA401060855
:10034C0008B5024B1B685B69019308BDA401060844
:10035C0008B5034B1B68D3F89030019308BD00001F
:10036C00A401060808B5034B1B68D3F89C30019315
:10037C0008BD0000A401060808B5024B1B685B68A9
:10038C00019308BDC801060808B5024B1B689B68A1
:10039C00019308BDC801060808B5024B1B68DB6851
:1003AC00019308BDC801060808B5024B1B681B6900
:1003BC00019308BDC801060808B5024B1B685B69B0
:1003CC00019308BDC801060808B5024B1B689B6960
:1003DC00019308BDC801060808B5024B1B68DB6910
:1003EC00019308BDC801060808B5024B1B681B6ABF
:1003FC00019308BDC801060808B5024B1B681B6BAE
:10040C00019308BDC801060808B5024B1B685B6B5D
:10041C00019308BDC801060808B5024B1B681B6C8C
:10042C00019308BDC801060808B5024B1B685B6C3C
:10043C00019308BDC801060808B5024B1B68DB6BAD
:10044C00019308BDCC01060808B5024B1B681B685C
:10045C00019308BDA001060808B5024B1B685B6838
:10046C00019308BDA001060808B5024B1B681B6C64
:10047C00019308BDA001060808B5024B1B685B6C14
:10048C00019308BDA001060870B5002604460D4670
:10049C0040F8086FFFF772FE28462570FFF7F8FE4C
:1004AC002046666070BD000002220020044B1A60DA
:1004BC00044B054AC3E900009A60FFF739BF00BF3F
:1004CC007C000020700000200000FFFFF8B50646FD
:1004DC000D4600248F18BD420CD0336830469B6803
:1004EC0015F8011B9847031E01DB1C44F3E7002C95
:1004FC0008BF1C462046F8BD70B505460C4608469C
:10050C0049B100F0C9FC2B68024621462846BDE8DB
:10051C007040DB68184770BD08B5FFF7EDFF08BDEC
:10052C0003689B6818470023012A98BF0A2230B53C
:10053C008BB00C468DF8243009A92546B4FBF2F497
:10054C0004FB1253DBB2092B94BF30333733DBB2CD
:10055C00AA4201F8013DF0D9FFF7CEFF0BB030BD38
:10056C00002340681A461946FFF726BF014B024A82
:10057C001A60704780000020A40F0A08024B1A680A
:10058C00024B1A60704700BF04000020840000205A
:10059C000021FFF7D5BE00000022014B9A60704786
:1005AC0088000020014B1860704700BF0800002035
:1005BC0008B5134B43B100F071F903681B699847F8
:1005CC00002801DDAFF300800E4B43B100F0AAFB15
:1005DC0003681B699847002801DDAFF300800A4BC4
:1005EC000BB1AFF30080094B43B100F091F90368F4
:1005FC001B699847002801DDAFF3008008BD00BFE0
:10060C0000000000000000000000000000000000DE
:10061C0008B5FFF7CDFFFFF7A9FD014B186008BD2A
:10062C000C0400200548064A08B5121A054900F0CA
:10063C00EFFB054B054A1A6008BD00BF00400240A5
:10064C000440024090110A08004002401E1C279AE8
:10065C00002307B51A466FF077010093FFF782FE6F
:10066C0003B05DF804FB000007B543880A2B08D0E3
:10067C00502B0BD1094B1B684BB103B05DF804EB4D
:10068C001847FFF7E5FF03B05DF804FB00231A469B
:10069C006FF077010093FFF765FEF4E79C000020F4
:1006AC00002110B51148FFF7E7FE114B1A68114BEA
:1006BC009A420CBF012200220F4B1A7001D0FFF797
:1006CC00B1FFFFF74BFD044600F0B8FB0B4B13B129
:1006DC002046AFF3008000210848FFF7ADFEBDE8CF
:1006EC00104000210648FFF733BE00BFB1050A08D1
:1006FC00004002401E1C279A9800002000000000B9
:10070C0075060A087047F8B50E46002400F1080774
:10071C00051D17F8011D0A223046FFF704FFAF42F2
:10072C00044401D12046F8BD002CF2D02E213046D5
:10073C00FFF7F6FE0444ECE710B504461821FFF76A
:10074C00A6FC204610BD000010B50446044B112237
:10075C00002140F8043B00F069FB204610BD00BFAF
:10076C00CC0F0A080346074A10B543F8042B01F1D5
:10077C00100251F8044B914243F8044BF9D10A781A
:10078C001A7010BDCC0F0A08024AC0E900210422DD
:10079C0002757047CC0F0A0810B59DF8084044EA62
:1007AC000324042344EA024444EA016444600375CC
:1007BC0010BD000013B5044C04609DF8104000946B
:1007CC00FFF7EAFF02B010BDCC0F0A084174704766
:1007DC007047704708B50021007CFFF781FD40EAA7
:1007EC00E07008BD08B50121007CFFF779FD40EAF7
:1007FC00E07008BD08B5007CFFF76AFD20EAE070E8
:10080C0008BD08B5007CFFF75BFD20EAE07008BD71
:10081C0038B50446007C0D46FFF75AFD002801DC74
:10082C00607C28B12946207CFFF762FD20EAE0704D
:10083C0038BD007CFFF764BD10B504461421FFF7EA
:10084C0026FC204610BD704710B54FF47A73044651
:10085C0008460021C4E90113044B207423600123D2
:10086C0011466374FFF724FD204610BDE00F0A0803
:10087C0010B504461422002100F0D8FA054B20468E
:10088C006360054BE36040F20113238181232382D3
:10089C0010BD00BFD0000020D101002030B50E4D9E
:1008AC0087B001A8FFF7E4FF2978BFF35B8F11F045
:1008BC0001040ED12846FFF7ECFB50B1214601AAEA
:1008CC000648FFF7C1FF2846FFF7E8FB044800F095
:1008DC0099FA024807B030BDA0000020A800002003
:1008EC00DD070A0810B504461422002100F09EFA18
:1008FC00054B20466360054BE36040F201132381F6
:10090C008123238210BD00BF52020020530300201C
:10091C0010B50E4C86B001A8FFF7E4FF2378BFF3A7
:10092C005B8FDB070ED42046FFF7B3FB50B10121E0
:10093C0001AA0748FFF788FF2046FFF7AFFB0548E1
:10094C0000F060FA024806B010BD00BFA400002001
:10095C00BC00002053080A0870474174704708B562
:10096C00007CFFF74BFC20EAE07008BD08B5007C6A
:10097C00FFF71CFC20EAE07008BD08B5007CFFF70F
:10098C0025FC40EAE07008BD08B5007CFFF716FCBA
:10099C0040EAE07008BD007CFFF720BC70B5467CD7
:1009AC0004460D462EB12946207CBDE87040FFF769
:1009BC00F5BB007CFFF722FC0028F4DC304670BD50
:1009CC0010B504461421FFF762FB204610BD000051
:1009DC0010B54FF47A730446084611460022C4E958
:1009EC000123044B2074236001236374FFF70EFC76
:1009FC00204610BD10100A087047F8B5064615467B
:100A0C000C468F18BC4206D0336830469B6814F8ED
:100A1C00011B9847F6E72846F8BD0022007CFFF73B
:100A2C00FDBB0021007CFFF701BC0021007CFFF71F
:100A3C0005BC0021007CFFF709BC0021007CFFF7FE
:100A4C000DBC10B504461421FFF721FB204610BD48
:100A5C0010B54FF47A73044608460021C4E901131B
:100A6C00034B114623602074FFF708FC204610BD91
:100A7C0040100A08002240681146FFF795BCF0B5FB
:100A8C00154689B011220E460446002103A800F039
:100A9C00CDF9284600F000FA002781B27368284689
:100AAC00009703AAFFF734FC30B139462046FFF714
:100ABC006BFE204609B0F0BD204603A9FFF752FE9D
:100ACC00F7E7002240681146FFF78EBC0022406811
:100ADC001146FFF799BC00224068FFF78DBC00223D
:100AEC00406881F00101FFF777BC002340681A468B
:100AFC001946FFF769BC002240681146FFF744BC59
:100B0C00002202214068FFF747BC002340681A46C8
:100B1C00FFF732BC0422024B5A60024A1A6070473B
:100B2C00D403002068100A08002340681A46FFF717
:100B3C0023BC002202214068FFF72EBC0022406833
:100B4C001146FFF721BC002240681146FFF72CBC70
:100B5C00002340681A461946FFF72EBC0023406854
:100B6C001A461946FFF730BC00214068FFF754BC09
:100B7C0000214068FFF758BC0022406881F0010159
:100B8C00FFF72ABC00224068FFF736BC0022406801
:100B9C001146FFF739BC002240681146FFF724BC10
:100BAC0070B515468EB0044608A8FFF7CDFD11228E
:100BBC00002103A800F03AF90026284600F06CF951
:100BCC000A4B009681B25B68284603AAFFF7A0FB8C
:100BDC0030B131462046FFF7D7FD20460EB070BD30
:100BEC00204603A9FFF7BEFDF7E700BFD4030020A2
:100BFC00024B034A1A6000225A607047DC03002043
:100C0C00A4100A08024B986808B1FFF7BFBA7047E6
:100C1C00E8030020172870B5044601D9002070BDE8
:100C2C00A0F10D03022B0BD9012824D800F0C4F835
:100C3C000021007CFFF71AFB80F00100C0B2EEE748
:100C4C00124E3178BFF35B8F11F001050DD1304698
:100C5C00FFF71FFA48B129460D48FFF715FC30463F
:100C6C00FFF71CFA0B4800F0CDF8094B1878FFF78A
:100C7C0017FB0028D2D1123C012C05D800F052F8F9
:100C8C00007CFFF7B3FAD7E70120C8E7E4030020A4
:100C9C00E8030020110C0A08172838B504460D4645
:100CAC000AD8FF2908D0FFF7B5FF28B129462046FE
:100CBC00BDE83840FFF73ABA38BD38B504460D46A2
:100CCC00FFF73CFAFF2810D0062804D84D2323FA4E
:100CDC0000F0C30709D42046FFF79CFF28B1294632
:100CEC002046BDE83840FFF731BA38BD70470000E8
:100CFC0070B5142504462A46002100F097F825808B
:100D0C008025074E284631462581258200F078F84B
:100D1C0031466060284600F073F8E060204670BDF4
:100D2C00D8100A0830B50E4D87B02978BFF35B8F09
:100D3C0011F0010411D12846FFF7ABF968B101A8F5
:100D4C00FFF7D6FF214601AA0648FFF741FE2846C9
:100D5C00FFF7A4F9044800F055F8024807B030BD7D
:100D6C00F4030020F8030020F90C0A08002307B54F
:100D7C001A46194600930348FFF71CFD03B05DF8B3
:100D8C0004FB00BF100400207047000070B5142352
:100D9C002025084E044603603146856005612846CF
:100DAC0000F02EF831466060284600F029F8E0602B
:100DBC00204670BDD8100A0830B50E4D87B0297882
:100DCC00BFF35B8F11F0010411D12846FFF761F9D5
:100DDC0068B101A8FFF7DAFF214601AA0648FFF720
:100DEC0037FE2846FFF75AF9044800F00BF8024882
:100DFC0007B030BD280400202C040020950D0A08F3
:100E0C00FFF743B9002301461A46184600F04CB8C8
:100E1C000A44914200F1FF3300D1704710B511F82C
:100E2C00014B914203F8014FF9D110BD0346024426
:100E3C00934200D1704703F8011BF9E738B5104B0A
:100E4C0004461D68AB6BB3B91820FFF7FDFA0246D8
:100E5C00A86320B942210B4B0B48FFF705FB0B494C
:100E6C000B4BC0E900130B4B002183600B238381D8
:100E7C000120C2E904010022AB6B1C615A6138BD30
:100E8C0008000020D9100A08F0100A080E33CDAB68
:100E9C0034126DE6ECDE0500034613F8012B002A34
:100EAC00FBD1181A013870472DE9F843DFF8AC80F4
:100EBC000646D8F800001F460D46914600F058F83B
:100ECC00274B1C6834B9274C1C60274B13B11B688B
:100EDC00C4F8883063681F2B07DDD8F8000000F0D9
:100EEC0049F84FF0FF30BDE8F8835EB3D4F88800C2
:100EFC0088B91E4B23B9D8F8000000F03AF8F0E797
:100F0C004FF48470FFF7A0FA0028F4D00023C0E956
:100F1C004033C4F8880001226368022E40F8239005
:100F2C0002FA03F200EB8301D0F8003143EA02032A
:100F3C00C0F80031C1F8807002BFD0F804311343FF
:100F4C00C0F804316368D8F800005A1C02336260A0
:100F5C0044F8235000F00EF80020C4E76C00002089
:100F6C00CC040020400400200000000055040A08B6
:100F7C0070477047704700001D000A085D000A08A2
:100F8C0085000A0889000A080000000048656C6C9E
:100F9C006F20576F726C64006170700025592D259D
:100FAC006D2D25645425483A254D3A2553257A0054
:100FBC0061736374696D650000000000000000003F
:100FCC0013070A0811070A0845070A080000000061
:100FDC0000000000DF070A0845080A081D080A0877
:100FEC00D9040A080F080A08E1070A08F1070A08D9
:100FFC003F080A0801080A08D9070A08000000007F
:10100C000000000065090A08CD090A08A9090A08A8
:10101C00D9040A0879090A0895090A0887090A08EF
:10102C00A3090A0867090A086B090A0800000000EE
:10103C0000000000050A0A084F0A0A08270A0A08D5
:10104C00070A0A082F0A0A08370A0A083F0A0A0878
:10105C00470A0A080000000000000000170B0A08ED
:10106C000D0B0A08030B0A08810A0A086D050A0809
:10107C00F70A0A08750B0A087D0B0A08EB0A0A081E
:10108C00E30A0A08D90A0A08CF0A0A088B0A0A08CE
:10109C000000000000000000350B0A083F0B0A0896
:1010AC00490B0A08530B0A085D0B0A08690B0A085E
:1010BC00750B0A087D0B0A08850B0A08910B0A08A8
:1010CC00990B0A08A30B0A08AD0B0A0800524545F8
:1010DC004E54206D616C6C6F632073756363656532
:1010EC00646564002F6D6E742F776F726B73706113
:1010FC0063652F776F726B73706163652F47434322
:10110C002D31302D706970656C696E652F6A656E56
:10111C006B696E732D4743432D31302D70697065AB
:10112C006C696E652D34385F323032303131323487
:10113C005F313630363138303634312F7372632F9D
:10114C006E65776C69622F6E65776C69622F6C695E
:10115C0062632F7374646C69622F72616E642E63A8
:10116C0000000000B5040A0879050A0889050A0878
:10117C00A5050A08210B0A08FD0B0A08790D0A08B7
:04118C00000000005F
:04119000000000005B
:1011940007000000BC0F0A080C000020000000003B
:1011A400000000000000000000000000000000003B
:1011B400000000000000000000000000000000002B
:1011C400000000000000000000000000000000001B
:1011D400000000000000000000000000000000000B
:1011E40000000000000000000000000000000000FB
:1011F400000000000000000000000000D0040020F7
:10120400FFFFFFFF00000102030405060708090AA7
:101214000B0C0D0E0F101112131415161718191AA2
:081224001B1C1D1E1F202800E9
:04122C0078563412AA
:04000005080A001CC9
:00000001FF
